{
  "abi": [
    {
      "anonymous": false,
      "inputs": [
        {
          "indexed": false,
          "internalType": "string",
          "name": "message",
          "type": "string"
        }
      ],
      "name": "AssertionFailed",
      "type": "event"
    },
    {
      "inputs": [],
      "name": "Bar",
      "outputs": [
        {
          "internalType": "int256",
          "name": "RET_0",
          "type": "int256"
        }
      ],
      "stateMutability": "nonpayable",
      "type": "function"
    },
    {
      "inputs": [
        {
          "internalType": "bool",
          "name": "b",
          "type": "bool"
        }
      ],
      "name": "SetNext",
      "outputs": [],
      "stateMutability": "nonpayable",
      "type": "function"
    }
  ],
  "bytecode": "608060405234801561001057600080fd5b506101c8806100206000396000f3fe608060405234801561001057600080fd5b50600436106100365760003560e01c8063b0a378b01461003b578063df5b722714610055575b600080fd5b610043610076565b60408051918252519081900360200190f35b6100746004803603602081101561006b57600080fd5b503515156100e7565b005b6000610080610109565b90506000546013146100e457604080516020808252601390820152720c0e88151a1a5cc81cda1bdd5b190819985a5b606a1b8183015290517fb42604cb105a16c8f6db8a41e6b00c0c1b4826465e8bc504b3eb3e88b3e6a4a09181900360600190a1fe5b90565b806100f35760006100f6565b60015b60ff166000546002020160008190555050565b60008054600a141561011757fe5b600054601e141561012457fe5b6000546032141561013157fe5b6000546046141561013e57fe5b600054605a141561014b57fe5b600054606e141561015857fe5b6000546082141561016557fe5b6000546096141561017257fe5b60005460aa141561017f57fe5b60005460be141561018c57fe5b5060009056fea2646970667358221220d15c0974595ed5c9a5da68377d16635bfa92f13a2af22bf0b52f63632505f04664736f6c634300060c0033",
  "bytecodeSha1": "ccde364430bb9e46053b700e953a13e72469a7ad",
  "compiler": {
    "evm_version": "istanbul",
    "optimizer": {
      "enabled": true,
      "runs": 200
    },
    "version": "0.6.12+commit.27d51765"
  },
  "contractName": "Foo",
  "language": "Solidity",
  "natspec": {
    "kind": "dev",
    "methods": {},
    "version": 1
  },
  "opcodes": "PUSH1 0x80 PUSH1 0x40 MSTORE CALLVALUE DUP1 ISZERO PUSH2 0x10 JUMPI PUSH1 0x0 DUP1 REVERT JUMPDEST POP PUSH1 0x4 CALLDATASIZE LT PUSH2 0x36 JUMPI PUSH1 0x0 CALLDATALOAD PUSH1 0xE0 SHR DUP1 PUSH4 0xB0A378B0 EQ PUSH2 0x3B JUMPI DUP1 PUSH4 0xDF5B7227 EQ PUSH2 0x55 JUMPI JUMPDEST PUSH1 0x0 DUP1 REVERT JUMPDEST PUSH2 0x43 PUSH2 0x76 JUMP JUMPDEST PUSH1 0x40 DUP1 MLOAD SWAP2 DUP3 MSTORE MLOAD SWAP1 DUP2 SWAP1 SUB PUSH1 0x20 ADD SWAP1 RETURN JUMPDEST PUSH2 0x74 PUSH1 0x4 DUP1 CALLDATASIZE SUB PUSH1 0x20 DUP2 LT ISZERO PUSH2 0x6B JUMPI PUSH1 0x0 DUP1 REVERT JUMPDEST POP CALLDATALOAD ISZERO ISZERO PUSH2 0xE7 JUMP JUMPDEST STOP JUMPDEST PUSH1 0x0 PUSH2 0x80 PUSH2 0x109 JUMP JUMPDEST SWAP1 POP PUSH1 0x0 SLOAD PUSH1 0x13 EQ PUSH2 0xE4 JUMPI PUSH1 0x40 DUP1 MLOAD PUSH1 0x20 DUP1 DUP3 MSTORE PUSH1 0x13 SWAP1 DUP3 ADD MSTORE PUSH19 0xC0E88151A1A5CC81CDA1BDD5B190819985A5B PUSH1 0x6A SHL DUP2 DUP4 ADD MSTORE SWAP1 MLOAD PUSH32 0xB42604CB105A16C8F6DB8A41E6B00C0C1B4826465E8BC504B3EB3E88B3E6A4A0 SWAP2 DUP2 SWAP1 SUB PUSH1 0x60 ADD SWAP1 LOG1 INVALID JUMPDEST SWAP1 JUMP JUMPDEST DUP1 PUSH2 0xF3 JUMPI PUSH1 0x0 PUSH2 0xF6 JUMP JUMPDEST PUSH1 0x1 JUMPDEST PUSH1 0xFF AND PUSH1 0x0 SLOAD PUSH1 0x2 MUL ADD PUSH1 0x0 DUP2 SWAP1 SSTORE POP POP JUMP JUMPDEST PUSH1 0x0 DUP1 SLOAD PUSH1 0xA EQ ISZERO PUSH2 0x117 JUMPI INVALID JUMPDEST PUSH1 0x0 SLOAD PUSH1 0x1E EQ ISZERO PUSH2 0x124 JUMPI INVALID JUMPDEST PUSH1 0x0 SLOAD PUSH1 0x32 EQ ISZERO PUSH2 0x131 JUMPI INVALID JUMPDEST PUSH1 0x0 SLOAD PUSH1 0x46 EQ ISZERO PUSH2 0x13E JUMPI INVALID JUMPDEST PUSH1 0x0 SLOAD PUSH1 0x5A EQ ISZERO PUSH2 0x14B JUMPI INVALID JUMPDEST PUSH1 0x0 SLOAD PUSH1 0x6E EQ ISZERO PUSH2 0x158 JUMPI INVALID JUMPDEST PUSH1 0x0 SLOAD PUSH1 0x82 EQ ISZERO PUSH2 0x165 JUMPI INVALID JUMPDEST PUSH1 0x0 SLOAD PUSH1 0x96 EQ ISZERO PUSH2 0x172 JUMPI INVALID JUMPDEST PUSH1 0x0 SLOAD PUSH1 0xAA EQ ISZERO PUSH2 0x17F JUMPI INVALID JUMPDEST PUSH1 0x0 SLOAD PUSH1 0xBE EQ ISZERO PUSH2 0x18C JUMPI INVALID JUMPDEST POP PUSH1 0x0 SWAP1 JUMP INVALID LOG2 PUSH5 0x6970667358 0x22 SLT KECCAK256 0xD1 0x5C MULMOD PUSH21 0x595ED5C9A5DA68377D16635BFA92F13A2AF22BF0B5 0x2F PUSH4 0x632505F0 CHAINID PUSH5 0x736F6C6343 STOP MOD 0xC STOP CALLER ",
  "sha1": "f5847f356bb154708ea3a08bb3f3f69696886b0c",
  "source": "pragma solidity <0.8.0;\n\ncontract Foo {\n    event AssertionFailed(string message);\n\n    int256 private x;\n\n    function Bar() public returns (int256 RET_0) {\n        RET_0 = _original_Foo_Bar();\n        if (!(x == 19)) {\n            emit AssertionFailed(\"0: This should fail\");\n            assert(false);\n        }\n    }\n\n    function _original_Foo_Bar() private view returns (int256) {\n        if (x == 10) {\n            assert(false);\n            return 1;\n        }\n        if (x == 30) {\n            assert(false);\n            return 3;\n        }\n        if (x == 50) {\n            assert(false);\n            return 5;\n        }\n        if (x == 70) {\n            assert(false);\n            return 7;\n        }\n        if (x == 90) {\n            assert(false);\n            return 9;\n        }\n        if (x == 110) {\n            assert(false);\n            return 11;\n        }\n        if (x == 130) {\n            assert(false);\n            return 13;\n        }\n        if (x == 150) {\n            assert(false);\n            return 15;\n        }\n        if (x == 170) {\n            assert(false);\n            return 17;\n        }\n        if (x == 190) {\n            assert(false);\n            return 19;\n        }\n        return 0;\n    }\n\n    function SetNext(bool b) public {\n        x = (2 * x) + (b ? 1 : 0);\n    }\n}",
  "sourcePath": "contracts/sample.sol",
  "type": "contract"
}