{
    "contracts/mocks/ComplexRewarder.sol": {
        "ComplexRewarder": {
            "abi": [
                {
                    "inputs": [
                        {
                            "internalType": "contract IERC20",
                            "name": "_rewardToken",
                            "type": "address"
                        },
                        {
                            "internalType": "uint256",
                            "name": "_tokenPerBlock",
                            "type": "uint256"
                        },
                        {
                            "internalType": "address",
                            "name": "_MASTERCHEF_V2",
                            "type": "address"
                        }
                    ],
                    "stateMutability": "nonpayable",
                    "type": "constructor"
                },
                {
                    "anonymous": false,
                    "inputs": [],
                    "name": "LogInit",
                    "type": "event"
                },
                {
                    "anonymous": false,
                    "inputs": [
                        {
                            "indexed": true,
                            "internalType": "address",
                            "name": "user",
                            "type": "address"
                        },
                        {
                            "indexed": true,
                            "internalType": "uint256",
                            "name": "pid",
                            "type": "uint256"
                        },
                        {
                            "indexed": false,
                            "internalType": "uint256",
                            "name": "amount",
                            "type": "uint256"
                        },
                        {
                            "indexed": true,
                            "internalType": "address",
                            "name": "to",
                            "type": "address"
                        }
                    ],
                    "name": "LogOnReward",
                    "type": "event"
                },
                {
                    "anonymous": false,
                    "inputs": [
                        {
                            "indexed": true,
                            "internalType": "uint256",
                            "name": "pid",
                            "type": "uint256"
                        },
                        {
                            "indexed": false,
                            "internalType": "uint256",
                            "name": "allocPoint",
                            "type": "uint256"
                        }
                    ],
                    "name": "LogPoolAddition",
                    "type": "event"
                },
                {
                    "anonymous": false,
                    "inputs": [
                        {
                            "indexed": true,
                            "internalType": "uint256",
                            "name": "pid",
                            "type": "uint256"
                        },
                        {
                            "indexed": false,
                            "internalType": "uint256",
                            "name": "allocPoint",
                            "type": "uint256"
                        }
                    ],
                    "name": "LogSetPool",
                    "type": "event"
                },
                {
                    "anonymous": false,
                    "inputs": [
                        {
                            "indexed": true,
                            "internalType": "uint256",
                            "name": "pid",
                            "type": "uint256"
                        },
                        {
                            "indexed": false,
                            "internalType": "uint64",
                            "name": "lastRewardBlock",
                            "type": "uint64"
                        },
                        {
                            "indexed": false,
                            "internalType": "uint256",
                            "name": "lpSupply",
                            "type": "uint256"
                        },
                        {
                            "indexed": false,
                            "internalType": "uint256",
                            "name": "accSushiPerShare",
                            "type": "uint256"
                        }
                    ],
                    "name": "LogUpdatePool",
                    "type": "event"
                },
                {
                    "anonymous": false,
                    "inputs": [
                        {
                            "indexed": true,
                            "internalType": "address",
                            "name": "previousOwner",
                            "type": "address"
                        },
                        {
                            "indexed": true,
                            "internalType": "address",
                            "name": "newOwner",
                            "type": "address"
                        }
                    ],
                    "name": "OwnershipTransferred",
                    "type": "event"
                },
                {
                    "inputs": [
                        {
                            "internalType": "uint256",
                            "name": "allocPoint",
                            "type": "uint256"
                        },
                        {
                            "internalType": "uint256",
                            "name": "_pid",
                            "type": "uint256"
                        }
                    ],
                    "name": "add",
                    "outputs": [],
                    "stateMutability": "nonpayable",
                    "type": "function"
                },
                {
                    "inputs": [],
                    "name": "claimOwnership",
                    "outputs": [],
                    "stateMutability": "nonpayable",
                    "type": "function"
                },
                {
                    "inputs": [
                        {
                            "internalType": "uint256[]",
                            "name": "pids",
                            "type": "uint256[]"
                        }
                    ],
                    "name": "massUpdatePools",
                    "outputs": [],
                    "stateMutability": "nonpayable",
                    "type": "function"
                },
                {
                    "inputs": [
                        {
                            "internalType": "uint256",
                            "name": "pid",
                            "type": "uint256"
                        },
                        {
                            "internalType": "address",
                            "name": "_user",
                            "type": "address"
                        },
                        {
                            "internalType": "address",
                            "name": "to",
                            "type": "address"
                        },
                        {
                            "internalType": "uint256",
                            "name": "",
                            "type": "uint256"
                        },
                        {
                            "internalType": "uint256",
                            "name": "lpToken",
                            "type": "uint256"
                        }
                    ],
                    "name": "onSushiReward",
                    "outputs": [],
                    "stateMutability": "nonpayable",
                    "type": "function"
                },
                {
                    "inputs": [],
                    "name": "owner",
                    "outputs": [
                        {
                            "internalType": "address",
                            "name": "",
                            "type": "address"
                        }
                    ],
                    "stateMutability": "view",
                    "type": "function"
                },
                {
                    "inputs": [],
                    "name": "pendingOwner",
                    "outputs": [
                        {
                            "internalType": "address",
                            "name": "",
                            "type": "address"
                        }
                    ],
                    "stateMutability": "view",
                    "type": "function"
                },
                {
                    "inputs": [
                        {
                            "internalType": "uint256",
                            "name": "_pid",
                            "type": "uint256"
                        },
                        {
                            "internalType": "address",
                            "name": "_user",
                            "type": "address"
                        }
                    ],
                    "name": "pendingToken",
                    "outputs": [
                        {
                            "internalType": "uint256",
                            "name": "pending",
                            "type": "uint256"
                        }
                    ],
                    "stateMutability": "view",
                    "type": "function"
                },
                {
                    "inputs": [
                        {
                            "internalType": "uint256",
                            "name": "pid",
                            "type": "uint256"
                        },
                        {
                            "internalType": "address",
                            "name": "user",
                            "type": "address"
                        },
                        {
                            "internalType": "uint256",
                            "name": "",
                            "type": "uint256"
                        }
                    ],
                    "name": "pendingTokens",
                    "outputs": [
                        {
                            "internalType": "contract IERC20[]",
                            "name": "rewardTokens",
                            "type": "address[]"
                        },
                        {
                            "internalType": "uint256[]",
                            "name": "rewardAmounts",
                            "type": "uint256[]"
                        }
                    ],
                    "stateMutability": "nonpayable",
                    "type": "function"
                },
                {
                    "inputs": [
                        {
                            "internalType": "uint256",
                            "name": "",
                            "type": "uint256"
                        }
                    ],
                    "name": "poolIds",
                    "outputs": [
                        {
                            "internalType": "uint256",
                            "name": "",
                            "type": "uint256"
                        }
                    ],
                    "stateMutability": "view",
                    "type": "function"
                },
                {
                    "inputs": [
                        {
                            "internalType": "uint256",
                            "name": "",
                            "type": "uint256"
                        }
                    ],
                    "name": "poolInfo",
                    "outputs": [
                        {
                            "internalType": "uint128",
                            "name": "accSushiPerShare",
                            "type": "uint128"
                        },
                        {
                            "internalType": "uint64",
                            "name": "lastRewardBlock",
                            "type": "uint64"
                        },
                        {
                            "internalType": "uint64",
                            "name": "allocPoint",
                            "type": "uint64"
                        }
                    ],
                    "stateMutability": "view",
                    "type": "function"
                },
                {
                    "inputs": [],
                    "name": "poolLength",
                    "outputs": [
                        {
                            "internalType": "uint256",
                            "name": "pools",
                            "type": "uint256"
                        }
                    ],
                    "stateMutability": "view",
                    "type": "function"
                },
                {
                    "inputs": [
                        {
                            "internalType": "uint256",
                            "name": "_pid",
                            "type": "uint256"
                        },
                        {
                            "internalType": "uint256",
                            "name": "_allocPoint",
                            "type": "uint256"
                        }
                    ],
                    "name": "set",
                    "outputs": [],
                    "stateMutability": "nonpayable",
                    "type": "function"
                },
                {
                    "inputs": [],
                    "name": "tokenPerBlock",
                    "outputs": [
                        {
                            "internalType": "uint256",
                            "name": "",
                            "type": "uint256"
                        }
                    ],
                    "stateMutability": "view",
                    "type": "function"
                },
                {
                    "inputs": [
                        {
                            "internalType": "address",
                            "name": "newOwner",
                            "type": "address"
                        },
                        {
                            "internalType": "bool",
                            "name": "direct",
                            "type": "bool"
                        },
                        {
                            "internalType": "bool",
                            "name": "renounce",
                            "type": "bool"
                        }
                    ],
                    "name": "transferOwnership",
                    "outputs": [],
                    "stateMutability": "nonpayable",
                    "type": "function"
                },
                {
                    "inputs": [
                        {
                            "internalType": "uint256",
                            "name": "pid",
                            "type": "uint256"
                        }
                    ],
                    "name": "updatePool",
                    "outputs": [
                        {
                            "components": [
                                {
                                    "internalType": "uint128",
                                    "name": "accSushiPerShare",
                                    "type": "uint128"
                                },
                                {
                                    "internalType": "uint64",
                                    "name": "lastRewardBlock",
                                    "type": "uint64"
                                },
                                {
                                    "internalType": "uint64",
                                    "name": "allocPoint",
                                    "type": "uint64"
                                }
                            ],
                            "internalType": "struct ComplexRewarder.PoolInfo",
                            "name": "pool",
                            "type": "tuple"
                        }
                    ],
                    "stateMutability": "nonpayable",
                    "type": "function"
                },
                {
                    "inputs": [
                        {
                            "internalType": "uint256",
                            "name": "",
                            "type": "uint256"
                        },
                        {
                            "internalType": "address",
                            "name": "",
                            "type": "address"
                        }
                    ],
                    "name": "userInfo",
                    "outputs": [
                        {
                            "internalType": "uint256",
                            "name": "amount",
                            "type": "uint256"
                        },
                        {
                            "internalType": "uint256",
                            "name": "rewardDebt",
                            "type": "uint256"
                        }
                    ],
                    "stateMutability": "view",
                    "type": "function"
                }
            ],
            "devdoc": {
                "author": "@0xKeno",
                "kind": "dev",
                "methods": {
                    "add(uint256,uint256)": {
                        "params": {
                            "_pid": "Pid on MCV2",
                            "allocPoint": "AP of the new pool."
                        }
                    },
                    "massUpdatePools(uint256[])": {
                        "params": {
                            "pids": "Pool IDs of all to be updated. Make sure to update all active pools."
                        }
                    },
                    "pendingToken(uint256,address)": {
                        "params": {
                            "_pid": "The index of the pool. See `poolInfo`.",
                            "_user": "Address of user."
                        },
                        "returns": {
                            "pending": "SUSHI reward for a given user."
                        }
                    },
                    "set(uint256,uint256)": {
                        "params": {
                            "_allocPoint": "New AP of the pool.",
                            "_pid": "The index of the pool. See `poolInfo`."
                        }
                    },
                    "updatePool(uint256)": {
                        "params": {
                            "pid": "The index of the pool. See `poolInfo`."
                        },
                        "returns": {
                            "pool": "Returns the pool that was updated."
                        }
                    }
                },
                "stateVariables": {
                    "totalAllocPoint": {
                        "details": "Total allocation points. Must be the sum of all allocation points in all pools."
                    }
                },
                "version": 1
            },
            "evm": {
                "bytecode": {
                    "linkReferences": {},
                    "object": "60c060405234801561001057600080fd5b50604051620018673803806200186783398101604081905261003191610095565b600080546001600160a01b0319163390811782556040519091907f8be0079c531659141344cd1fd0a4f28419497f9722a3daafe3b4186f6b6457e0908290a36001600160601b0319606093841b811660805260069290925590911b1660a0526100ef565b6000806000606084860312156100a9578283fd5b83516100b4816100d7565b6020850151604086015191945092506100cc816100d7565b809150509250925092565b6001600160a01b03811681146100ec57600080fd5b50565b60805160601c60a05160601c61173562000132600039806104fb5280610590528061080052806108955280610c7a525080610d2b5280610e3352506117356000f3fe608060405234801561001057600080fd5b50600436106101005760003560e01c806357a5b58c116100975780638da5cb5b116100665780638da5cb5b146101fc57806393f1a40b14610211578063d63b3c4914610232578063e30c39781461025357610100565b806357a5b58c146101b057806369883b4e146101c3578063771602f7146101d65780638bf63742146101e957610100565b80634198709a116100d35780634198709a1461016d57806348e43af4146101755780634e71e0c81461018857806351eb05a61461019057610100565b8063078dfbe714610105578063081e3eda1461011a5780631526fe27146101385780631ab06ee51461015a575b600080fd5b6101186101133660046110ef565b61025b565b005b61012261034a565b60405161012f9190611698565b60405180910390f35b61014b6101463660046111e6565b610350565b60405161012f9392919061166e565b6101186101683660046112cd565b610387565b610122610466565b610122610183366004611216565b61046c565b6101186106fa565b6101a361019e3660046111e6565b610787565b60405161012f9190611635565b6101186101be366004611139565b610a85565b6101226101d13660046111e6565b610abb565b6101186101e43660046112cd565b610ad9565b6101186101f7366004611245565b610c6f565b610204610dd8565b60405161012f919061132f565b61022461021f366004611216565b610de7565b60405161012f9291906116a1565b610245610240366004611296565b610e0b565b60405161012f92919061135c565b610204610eca565b6000546001600160a01b0316331461028e5760405162461bcd60e51b81526004016102859061155d565b60405180910390fd5b8115610329576001600160a01b0383161515806102a85750805b6102c45760405162461bcd60e51b8152600401610285906114c0565b600080546040516001600160a01b03808716939216917f8be0079c531659141344cd1fd0a4f28419497f9722a3daafe3b4186f6b6457e091a3600080546001600160a01b0385166001600160a01b031991821617909155600180549091169055610345565b600180546001600160a01b0319166001600160a01b0385161790555b505050565b60035490565b6002602052600090815260409020546001600160801b038116906001600160401b03600160801b8204811691600160c01b90041683565b6000546001600160a01b031633146103b15760405162461bcd60e51b81526004016102859061155d565b6000828152600260205260409020546005546103e89183916103e291600160c01b90046001600160401b0316610ed9565b90610f02565b6005556103f481610f25565b6000838152600260205260409081902080546001600160401b0393909316600160c01b026001600160c01b03909316929092179091555182907f942cc7e17a17c164bd977f32ab8c54265d5b9d481e4e352bf874f1e568874e7c9061045a908490611698565b60405180910390a25050565b60065481565b60006104766110cf565b506000838152600260209081526040808320815160608101835290546001600160801b0380821683526001600160401b03600160801b8304811684870152600160c01b9092049091168284015287855260048085528386206001600160a01b03808a1688529552838620835194516378ed5d1f60e01b815293969095949092169391927f0000000000000000000000000000000000000000000000000000000000000000909216916378ed5d1f91610530918b9101611698565b60206040518083038186803b15801561054857600080fd5b505afa15801561055c573d6000803e3d6000fd5b505050506040513d601f19601f8201168201806040525081019061058091906111ca565b6001600160a01b03166370a082317f00000000000000000000000000000000000000000000000000000000000000006040518263ffffffff1660e01b81526004016105cb919061132f565b60206040518083038186803b1580156105e357600080fd5b505afa1580156105f7573d6000803e3d6000fd5b505050506040513d601f19601f8201168201806040525081019061061b91906111fe565b905083602001516001600160401b03164311801561063857508015155b156106c457600061065f85602001516001600160401b031643610ed990919063ffffffff16565b9050600060055461069287604001516001600160401b031661068c60065486610f5290919063ffffffff16565b90610f52565b8161069957fe5b0490506106bf836106af8364e8d4a51000610f52565b816106b657fe5b86919004610f02565b935050505b600183015483546106ef919064e8d4a51000906106e19086610f52565b816106e857fe5b0490610ed9565b979650505050505050565b6001546001600160a01b03163381146107255760405162461bcd60e51b815260040161028590611592565b600080546040516001600160a01b03808516939216917f8be0079c531659141344cd1fd0a4f28419497f9722a3daafe3b4186f6b6457e091a3600080546001600160a01b039092166001600160a01b0319928316179055600180549091169055565b61078f6110cf565b50600081815260026020908152604091829020825160608101845290546001600160801b03811682526001600160401b03600160801b82048116938301849052600160c01b9091041692810192909252431115610a80576040516378ed5d1f60e01b81526000906001600160a01b037f000000000000000000000000000000000000000000000000000000000000000016906378ed5d1f90610835908690600401611698565b60206040518083038186803b15801561084d57600080fd5b505afa158015610861573d6000803e3d6000fd5b505050506040513d601f19601f8201168201806040525081019061088591906111ca565b6001600160a01b03166370a082317f00000000000000000000000000000000000000000000000000000000000000006040518263ffffffff1660e01b81526004016108d0919061132f565b60206040518083038186803b1580156108e857600080fd5b505afa1580156108fc573d6000803e3d6000fd5b505050506040513d601f19601f8201168201806040525081019061092091906111fe565b905080156109c357600061094a83602001516001600160401b031643610ed990919063ffffffff16565b9050600060055461097785604001516001600160401b031661068c60065486610f5290919063ffffffff16565b8161097e57fe5b0490506109b56109a4846109978464e8d4a51000610f52565b8161099e57fe5b04610f89565b85516001600160801b031690610fb2565b6001600160801b0316845250505b6109cc43610f25565b6001600160401b03908116602084810191825260008681526002909152604090819020855181549351838801516001600160801b03199095166001600160801b0383161767ffffffffffffffff60801b1916600160801b82881602176001600160c01b0316600160c01b95909616949094029490941790555185927f0fc9545022a542541ad085d091fb09a2ab36fee366a4576ab63714ea907ad35392610a7692909186916116af565b60405180910390a2505b919050565b8060005b81811015610ab557610aac848483818110610aa057fe5b90506020020135610787565b50600101610a89565b50505050565b60038181548110610ac857fe5b600091825260209091200154905081565b6000546001600160a01b03163314610b035760405162461bcd60e51b81526004016102859061155d565b600081815260026020526040902054600160801b90046001600160401b031615610b3f5760405162461bcd60e51b81526004016102859061141b565b6005544390610b4e9084610f02565b60055560408051606081019091526000815260208101610b6d83610f25565b6001600160401b03168152602001610b8485610f25565b6001600160401b0390811690915260008481526002602090815260408083208551815493870151968301518616600160c01b026001600160c01b0397909616600160801b0267ffffffffffffffff60801b196001600160801b039092166001600160801b031990951694909417169290921794909416929092179091556003805460018101825591527fc2575a0e9e593c00f959f8c92f12db2869c3395a3b0502d05e2516446f71f85b018390555182907f38410508059921573ab9ebdca2a5034be738d236366b8f32de4434ea95ed3c8190610c62908690611698565b60405180910390a2505050565b336001600160a01b037f00000000000000000000000000000000000000000000000000000000000000001614610cb75760405162461bcd60e51b81526004016102859061147f565b610cbf6110cf565b610cc886610787565b60008781526004602090815260408083206001600160a01b038a168452909152812080549293509115610d5257600182015483518354610d1c929164e8d4a51000916106e1916001600160801b0316610f52565b9050610d526001600160a01b037f0000000000000000000000000000000000000000000000000000000000000000168783610fe1565b838255825164e8d4a5100090610d729086906001600160801b0316610f52565b81610d7957fe5b048260010181905550856001600160a01b031688886001600160a01b03167f2ece88ca2bc08dd018db50e1d25a20bf1241e5fab1c396caa51f01a54bd2f75b84604051610dc69190611698565b60405180910390a45050505050505050565b6000546001600160a01b031681565b60046020908152600092835260408084209091529082529020805460019091015482565b60408051600180825281830190925260609182918291602080830190803683370190505090507f000000000000000000000000000000000000000000000000000000000000000081600081518110610e5f57fe5b6001600160a01b039290921660209283029190910190910152604080516001808252818301909252606091816020016020820280368337019050509050610ea6878761046c565b81600081518110610eb357fe5b602090810291909101015290969095509350505050565b6001546001600160a01b031681565b80820382811115610efc5760405162461bcd60e51b8152600401610285906113ec565b92915050565b81810181811015610efc5760405162461bcd60e51b815260040161028590611526565b60006001600160401b03821115610f4e5760405162461bcd60e51b8152600401610285906115c7565b5090565b6000811580610f6d57505080820282828281610f6a57fe5b04145b610efc5760405162461bcd60e51b8152600401610285906115fe565b60006001600160801b03821115610f4e5760405162461bcd60e51b8152600401610285906114ef565b8181016001600160801b038083169082161015610efc5760405162461bcd60e51b815260040161028590611526565b60006060846001600160a01b031663a9059cbb8585604051602401611007929190611343565b6040516020818303038152906040529060e01b6020820180516001600160e01b03838183161783525050505060405161104091906112f6565b6000604051808303816000865af19150503d806000811461107d576040519150601f19603f3d011682016040523d82523d6000602084013e611082565b606091505b50915091508180156110ac5750805115806110ac5750808060200190518101906110ac91906111a7565b6110c85760405162461bcd60e51b815260040161028590611448565b5050505050565b604080516060810182526000808252602082018190529181019190915290565b600080600060608486031215611103578283fd5b833561110e816116d9565b9250602084013561111e816116f1565b9150604084013561112e816116f1565b809150509250925092565b6000806020838503121561114b578182fd5b82356001600160401b0380821115611161578384fd5b818501915085601f830112611174578384fd5b813581811115611182578485fd5b8660208083028501011115611195578485fd5b60209290920196919550909350505050565b6000602082840312156111b8578081fd5b81516111c3816116f1565b9392505050565b6000602082840312156111db578081fd5b81516111c3816116d9565b6000602082840312156111f7578081fd5b5035919050565b60006020828403121561120f578081fd5b5051919050565b60008060408385031215611228578182fd5b82359150602083013561123a816116d9565b809150509250929050565b600080600080600060a0868803121561125c578081fd5b85359450602086013561126e816116d9565b9350604086013561127e816116d9565b94979396509394606081013594506080013592915050565b6000806000606084860312156112aa578283fd5b8335925060208401356112bc816116d9565b929592945050506040919091013590565b600080604083850312156112df578182fd5b50508035926020909101359150565b815260200190565b60008251815b8181101561131657602081860181015185830152016112fc565b818111156113245782828501525b509190910192915050565b6001600160a01b0391909116815260200190565b6001600160a01b03929092168252602082015260400190565b604080825283519082018190526000906020906060840190828701845b8281101561139e5781516001600160a01b031684529284019290840190600101611379565b505050838103828501528085516113b58184611698565b91508387019250845b818110156113df576113d18385516112ee565b9385019392506001016113be565b5090979650505050505050565b602080825260159082015274426f72696e674d6174683a20556e646572666c6f7760581b604082015260600190565b602080825260139082015272506f6f6c20616c72656164792065786973747360681b604082015260600190565b6020808252601c908201527f426f72696e6745524332303a205472616e73666572206661696c656400000000604082015260600190565b60208082526021908201527f4f6e6c79204d4356322063616e2063616c6c20746869732066756e6374696f6e6040820152601760f91b606082015260800190565b6020808252601590820152744f776e61626c653a207a65726f206164647265737360581b604082015260600190565b6020808252601c908201527f426f72696e674d6174683a2075696e74313238204f766572666c6f7700000000604082015260600190565b60208082526018908201527f426f72696e674d6174683a20416464204f766572666c6f770000000000000000604082015260600190565b6020808252818101527f4f776e61626c653a2063616c6c6572206973206e6f7420746865206f776e6572604082015260600190565b6020808252818101527f4f776e61626c653a2063616c6c657220213d2070656e64696e67206f776e6572604082015260600190565b6020808252601b908201527f426f72696e674d6174683a2075696e743634204f766572666c6f770000000000604082015260600190565b60208082526018908201527f426f72696e674d6174683a204d756c204f766572666c6f770000000000000000604082015260600190565b81516001600160801b031681526020808301516001600160401b0390811691830191909152604092830151169181019190915260600190565b6001600160801b039390931683526001600160401b03918216602084015216604082015260600190565b90815260200190565b918252602082015260400190565b6001600160401b0393909316835260208301919091526001600160801b0316604082015260600190565b6001600160a01b03811681146116ee57600080fd5b50565b80151581146116ee57600080fdfea26469706673582212205b02e67e50616308de8a2a0ea092220cbb6bab154c4c12313ce97766220ac5f864736f6c634300060c0033",
                    "opcodes": "PUSH1 0xC0 PUSH1 0x40 MSTORE CALLVALUE DUP1 ISZERO PUSH2 0x10 JUMPI PUSH1 0x0 DUP1 REVERT JUMPDEST POP PUSH1 0x40 MLOAD PUSH3 0x1867 CODESIZE SUB DUP1 PUSH3 0x1867 DUP4 CODECOPY DUP2 ADD PUSH1 0x40 DUP2 SWAP1 MSTORE PUSH2 0x31 SWAP2 PUSH2 0x95 JUMP JUMPDEST PUSH1 0x0 DUP1 SLOAD PUSH1 0x1 PUSH1 0x1 PUSH1 0xA0 SHL SUB NOT AND CALLER SWAP1 DUP2 OR DUP3 SSTORE PUSH1 0x40 MLOAD SWAP1 SWAP2 SWAP1 PUSH32 0x8BE0079C531659141344CD1FD0A4F28419497F9722A3DAAFE3B4186F6B6457E0 SWAP1 DUP3 SWAP1 LOG3 PUSH1 0x1 PUSH1 0x1 PUSH1 0x60 SHL SUB NOT PUSH1 0x60 SWAP4 DUP5 SHL DUP2 AND PUSH1 0x80 MSTORE PUSH1 0x6 SWAP3 SWAP1 SWAP3 SSTORE SWAP1 SWAP2 SHL AND PUSH1 0xA0 MSTORE PUSH2 0xEF JUMP JUMPDEST PUSH1 0x0 DUP1 PUSH1 0x0 PUSH1 0x60 DUP5 DUP7 SUB SLT ISZERO PUSH2 0xA9 JUMPI DUP3 DUP4 REVERT JUMPDEST DUP4 MLOAD PUSH2 0xB4 DUP2 PUSH2 0xD7 JUMP JUMPDEST PUSH1 0x20 DUP6 ADD MLOAD PUSH1 0x40 DUP7 ADD MLOAD SWAP2 SWAP5 POP SWAP3 POP PUSH2 0xCC DUP2 PUSH2 0xD7 JUMP JUMPDEST DUP1 SWAP2 POP POP SWAP3 POP SWAP3 POP SWAP3 JUMP JUMPDEST PUSH1 0x1 PUSH1 0x1 PUSH1 0xA0 SHL SUB DUP2 AND DUP2 EQ PUSH2 0xEC JUMPI PUSH1 0x0 DUP1 REVERT JUMPDEST POP JUMP JUMPDEST PUSH1 0x80 MLOAD PUSH1 0x60 SHR PUSH1 0xA0 MLOAD PUSH1 0x60 SHR PUSH2 0x1735 PUSH3 0x132 PUSH1 0x0 CODECOPY DUP1 PUSH2 0x4FB MSTORE DUP1 PUSH2 0x590 MSTORE DUP1 PUSH2 0x800 MSTORE DUP1 PUSH2 0x895 MSTORE DUP1 PUSH2 0xC7A MSTORE POP DUP1 PUSH2 0xD2B MSTORE DUP1 PUSH2 0xE33 MSTORE POP PUSH2 0x1735 PUSH1 0x0 RETURN INVALID PUSH1 0x80 PUSH1 0x40 MSTORE CALLVALUE DUP1 ISZERO PUSH2 0x10 JUMPI PUSH1 0x0 DUP1 REVERT JUMPDEST POP PUSH1 0x4 CALLDATASIZE LT PUSH2 0x100 JUMPI PUSH1 0x0 CALLDATALOAD PUSH1 0xE0 SHR DUP1 PUSH4 0x57A5B58C GT PUSH2 0x97 JUMPI DUP1 PUSH4 0x8DA5CB5B GT PUSH2 0x66 JUMPI DUP1 PUSH4 0x8DA5CB5B EQ PUSH2 0x1FC JUMPI DUP1 PUSH4 0x93F1A40B EQ PUSH2 0x211 JUMPI DUP1 PUSH4 0xD63B3C49 EQ PUSH2 0x232 JUMPI DUP1 PUSH4 0xE30C3978 EQ PUSH2 0x253 JUMPI PUSH2 0x100 JUMP JUMPDEST DUP1 PUSH4 0x57A5B58C EQ PUSH2 0x1B0 JUMPI DUP1 PUSH4 0x69883B4E EQ PUSH2 0x1C3 JUMPI DUP1 PUSH4 0x771602F7 EQ PUSH2 0x1D6 JUMPI DUP1 PUSH4 0x8BF63742 EQ PUSH2 0x1E9 JUMPI PUSH2 0x100 JUMP JUMPDEST DUP1 PUSH4 0x4198709A GT PUSH2 0xD3 JUMPI DUP1 PUSH4 0x4198709A EQ PUSH2 0x16D JUMPI DUP1 PUSH4 0x48E43AF4 EQ PUSH2 0x175 JUMPI DUP1 PUSH4 0x4E71E0C8 EQ PUSH2 0x188 JUMPI DUP1 PUSH4 0x51EB05A6 EQ PUSH2 0x190 JUMPI PUSH2 0x100 JUMP JUMPDEST DUP1 PUSH4 0x78DFBE7 EQ PUSH2 0x105 JUMPI DUP1 PUSH4 0x81E3EDA EQ PUSH2 0x11A JUMPI DUP1 PUSH4 0x1526FE27 EQ PUSH2 0x138 JUMPI DUP1 PUSH4 0x1AB06EE5 EQ PUSH2 0x15A JUMPI JUMPDEST PUSH1 0x0 DUP1 REVERT JUMPDEST PUSH2 0x118 PUSH2 0x113 CALLDATASIZE PUSH1 0x4 PUSH2 0x10EF JUMP JUMPDEST PUSH2 0x25B JUMP JUMPDEST STOP JUMPDEST PUSH2 0x122 PUSH2 0x34A JUMP JUMPDEST PUSH1 0x40 MLOAD PUSH2 0x12F SWAP2 SWAP1 PUSH2 0x1698 JUMP JUMPDEST PUSH1 0x40 MLOAD DUP1 SWAP2 SUB SWAP1 RETURN JUMPDEST PUSH2 0x14B PUSH2 0x146 CALLDATASIZE PUSH1 0x4 PUSH2 0x11E6 JUMP JUMPDEST PUSH2 0x350 JUMP JUMPDEST PUSH1 0x40 MLOAD PUSH2 0x12F SWAP4 SWAP3 SWAP2 SWAP1 PUSH2 0x166E JUMP JUMPDEST PUSH2 0x118 PUSH2 0x168 CALLDATASIZE PUSH1 0x4 PUSH2 0x12CD JUMP JUMPDEST PUSH2 0x387 JUMP JUMPDEST PUSH2 0x122 PUSH2 0x466 JUMP JUMPDEST PUSH2 0x122 PUSH2 0x183 CALLDATASIZE PUSH1 0x4 PUSH2 0x1216 JUMP JUMPDEST PUSH2 0x46C JUMP JUMPDEST PUSH2 0x118 PUSH2 0x6FA JUMP JUMPDEST PUSH2 0x1A3 PUSH2 0x19E CALLDATASIZE PUSH1 0x4 PUSH2 0x11E6 JUMP JUMPDEST PUSH2 0x787 JUMP JUMPDEST PUSH1 0x40 MLOAD PUSH2 0x12F SWAP2 SWAP1 PUSH2 0x1635 JUMP JUMPDEST PUSH2 0x118 PUSH2 0x1BE CALLDATASIZE PUSH1 0x4 PUSH2 0x1139 JUMP JUMPDEST PUSH2 0xA85 JUMP JUMPDEST PUSH2 0x122 PUSH2 0x1D1 CALLDATASIZE PUSH1 0x4 PUSH2 0x11E6 JUMP JUMPDEST PUSH2 0xABB JUMP JUMPDEST PUSH2 0x118 PUSH2 0x1E4 CALLDATASIZE PUSH1 0x4 PUSH2 0x12CD JUMP JUMPDEST PUSH2 0xAD9 JUMP JUMPDEST PUSH2 0x118 PUSH2 0x1F7 CALLDATASIZE PUSH1 0x4 PUSH2 0x1245 JUMP JUMPDEST PUSH2 0xC6F JUMP JUMPDEST PUSH2 0x204 PUSH2 0xDD8 JUMP JUMPDEST PUSH1 0x40 MLOAD PUSH2 0x12F SWAP2 SWAP1 PUSH2 0x132F JUMP JUMPDEST PUSH2 0x224 PUSH2 0x21F CALLDATASIZE PUSH1 0x4 PUSH2 0x1216 JUMP JUMPDEST PUSH2 0xDE7 JUMP JUMPDEST PUSH1 0x40 MLOAD PUSH2 0x12F SWAP3 SWAP2 SWAP1 PUSH2 0x16A1 JUMP JUMPDEST PUSH2 0x245 PUSH2 0x240 CALLDATASIZE PUSH1 0x4 PUSH2 0x1296 JUMP JUMPDEST PUSH2 0xE0B JUMP JUMPDEST PUSH1 0x40 MLOAD PUSH2 0x12F SWAP3 SWAP2 SWAP1 PUSH2 0x135C JUMP JUMPDEST PUSH2 0x204 PUSH2 0xECA JUMP JUMPDEST PUSH1 0x0 SLOAD PUSH1 0x1 PUSH1 0x1 PUSH1 0xA0 SHL SUB AND CALLER EQ PUSH2 0x28E JUMPI PUSH1 0x40 MLOAD PUSH3 0x461BCD PUSH1 0xE5 SHL DUP2 MSTORE PUSH1 0x4 ADD PUSH2 0x285 SWAP1 PUSH2 0x155D JUMP JUMPDEST PUSH1 0x40 MLOAD DUP1 SWAP2 SUB SWAP1 REVERT JUMPDEST DUP2 ISZERO PUSH2 0x329 JUMPI PUSH1 0x1 PUSH1 0x1 PUSH1 0xA0 SHL SUB DUP4 AND ISZERO ISZERO DUP1 PUSH2 0x2A8 JUMPI POP DUP1 JUMPDEST PUSH2 0x2C4 JUMPI PUSH1 0x40 MLOAD PUSH3 0x461BCD PUSH1 0xE5 SHL DUP2 MSTORE PUSH1 0x4 ADD PUSH2 0x285 SWAP1 PUSH2 0x14C0 JUMP JUMPDEST PUSH1 0x0 DUP1 SLOAD PUSH1 0x40 MLOAD PUSH1 0x1 PUSH1 0x1 PUSH1 0xA0 SHL SUB DUP1 DUP8 AND SWAP4 SWAP3 AND SWAP2 PUSH32 0x8BE0079C531659141344CD1FD0A4F28419497F9722A3DAAFE3B4186F6B6457E0 SWAP2 LOG3 PUSH1 0x0 DUP1 SLOAD PUSH1 0x1 PUSH1 0x1 PUSH1 0xA0 SHL SUB DUP6 AND PUSH1 0x1 PUSH1 0x1 PUSH1 0xA0 SHL SUB NOT SWAP2 DUP3 AND OR SWAP1 SWAP2 SSTORE PUSH1 0x1 DUP1 SLOAD SWAP1 SWAP2 AND SWAP1 SSTORE PUSH2 0x345 JUMP JUMPDEST PUSH1 0x1 DUP1 SLOAD PUSH1 0x1 PUSH1 0x1 PUSH1 0xA0 SHL SUB NOT AND PUSH1 0x1 PUSH1 0x1 PUSH1 0xA0 SHL SUB DUP6 AND OR SWAP1 SSTORE JUMPDEST POP POP POP JUMP JUMPDEST PUSH1 0x3 SLOAD SWAP1 JUMP JUMPDEST PUSH1 0x2 PUSH1 0x20 MSTORE PUSH1 0x0 SWAP1 DUP2 MSTORE PUSH1 0x40 SWAP1 KECCAK256 SLOAD PUSH1 0x1 PUSH1 0x1 PUSH1 0x80 SHL SUB DUP2 AND SWAP1 PUSH1 0x1 PUSH1 0x1 PUSH1 0x40 SHL SUB PUSH1 0x1 PUSH1 0x80 SHL DUP3 DIV DUP2 AND SWAP2 PUSH1 0x1 PUSH1 0xC0 SHL SWAP1 DIV AND DUP4 JUMP JUMPDEST PUSH1 0x0 SLOAD PUSH1 0x1 PUSH1 0x1 PUSH1 0xA0 SHL SUB AND CALLER EQ PUSH2 0x3B1 JUMPI PUSH1 0x40 MLOAD PUSH3 0x461BCD PUSH1 0xE5 SHL DUP2 MSTORE PUSH1 0x4 ADD PUSH2 0x285 SWAP1 PUSH2 0x155D JUMP JUMPDEST PUSH1 0x0 DUP3 DUP2 MSTORE PUSH1 0x2 PUSH1 0x20 MSTORE PUSH1 0x40 SWAP1 KECCAK256 SLOAD PUSH1 0x5 SLOAD PUSH2 0x3E8 SWAP2 DUP4 SWAP2 PUSH2 0x3E2 SWAP2 PUSH1 0x1 PUSH1 0xC0 SHL SWAP1 DIV PUSH1 0x1 PUSH1 0x1 PUSH1 0x40 SHL SUB AND PUSH2 0xED9 JUMP JUMPDEST SWAP1 PUSH2 0xF02 JUMP JUMPDEST PUSH1 0x5 SSTORE PUSH2 0x3F4 DUP2 PUSH2 0xF25 JUMP JUMPDEST PUSH1 0x0 DUP4 DUP2 MSTORE PUSH1 0x2 PUSH1 0x20 MSTORE PUSH1 0x40 SWAP1 DUP2 SWAP1 KECCAK256 DUP1 SLOAD PUSH1 0x1 PUSH1 0x1 PUSH1 0x40 SHL SUB SWAP4 SWAP1 SWAP4 AND PUSH1 0x1 PUSH1 0xC0 SHL MUL PUSH1 0x1 PUSH1 0x1 PUSH1 0xC0 SHL SUB SWAP1 SWAP4 AND SWAP3 SWAP1 SWAP3 OR SWAP1 SWAP2 SSTORE MLOAD DUP3 SWAP1 PUSH32 0x942CC7E17A17C164BD977F32AB8C54265D5B9D481E4E352BF874F1E568874E7C SWAP1 PUSH2 0x45A SWAP1 DUP5 SWAP1 PUSH2 0x1698 JUMP JUMPDEST PUSH1 0x40 MLOAD DUP1 SWAP2 SUB SWAP1 LOG2 POP POP JUMP JUMPDEST PUSH1 0x6 SLOAD DUP2 JUMP JUMPDEST PUSH1 0x0 PUSH2 0x476 PUSH2 0x10CF JUMP JUMPDEST POP PUSH1 0x0 DUP4 DUP2 MSTORE PUSH1 0x2 PUSH1 0x20 SWAP1 DUP2 MSTORE PUSH1 0x40 DUP1 DUP4 KECCAK256 DUP2 MLOAD PUSH1 0x60 DUP2 ADD DUP4 MSTORE SWAP1 SLOAD PUSH1 0x1 PUSH1 0x1 PUSH1 0x80 SHL SUB DUP1 DUP3 AND DUP4 MSTORE PUSH1 0x1 PUSH1 0x1 PUSH1 0x40 SHL SUB PUSH1 0x1 PUSH1 0x80 SHL DUP4 DIV DUP2 AND DUP5 DUP8 ADD MSTORE PUSH1 0x1 PUSH1 0xC0 SHL SWAP1 SWAP3 DIV SWAP1 SWAP2 AND DUP3 DUP5 ADD MSTORE DUP8 DUP6 MSTORE PUSH1 0x4 DUP1 DUP6 MSTORE DUP4 DUP7 KECCAK256 PUSH1 0x1 PUSH1 0x1 PUSH1 0xA0 SHL SUB DUP1 DUP11 AND DUP9 MSTORE SWAP6 MSTORE DUP4 DUP7 KECCAK256 DUP4 MLOAD SWAP5 MLOAD PUSH4 0x78ED5D1F PUSH1 0xE0 SHL DUP2 MSTORE SWAP4 SWAP7 SWAP1 SWAP6 SWAP5 SWAP1 SWAP3 AND SWAP4 SWAP2 SWAP3 PUSH32 0x0 SWAP1 SWAP3 AND SWAP2 PUSH4 0x78ED5D1F SWAP2 PUSH2 0x530 SWAP2 DUP12 SWAP2 ADD PUSH2 0x1698 JUMP JUMPDEST PUSH1 0x20 PUSH1 0x40 MLOAD DUP1 DUP4 SUB DUP2 DUP7 DUP1 EXTCODESIZE ISZERO DUP1 ISZERO PUSH2 0x548 JUMPI PUSH1 0x0 DUP1 REVERT JUMPDEST POP GAS STATICCALL ISZERO DUP1 ISZERO PUSH2 0x55C JUMPI RETURNDATASIZE PUSH1 0x0 DUP1 RETURNDATACOPY RETURNDATASIZE PUSH1 0x0 REVERT JUMPDEST POP POP POP POP PUSH1 0x40 MLOAD RETURNDATASIZE PUSH1 0x1F NOT PUSH1 0x1F DUP3 ADD AND DUP3 ADD DUP1 PUSH1 0x40 MSTORE POP DUP2 ADD SWAP1 PUSH2 0x580 SWAP2 SWAP1 PUSH2 0x11CA JUMP JUMPDEST PUSH1 0x1 PUSH1 0x1 PUSH1 0xA0 SHL SUB AND PUSH4 0x70A08231 PUSH32 0x0 PUSH1 0x40 MLOAD DUP3 PUSH4 0xFFFFFFFF AND PUSH1 0xE0 SHL DUP2 MSTORE PUSH1 0x4 ADD PUSH2 0x5CB SWAP2 SWAP1 PUSH2 0x132F JUMP JUMPDEST PUSH1 0x20 PUSH1 0x40 MLOAD DUP1 DUP4 SUB DUP2 DUP7 DUP1 EXTCODESIZE ISZERO DUP1 ISZERO PUSH2 0x5E3 JUMPI PUSH1 0x0 DUP1 REVERT JUMPDEST POP GAS STATICCALL ISZERO DUP1 ISZERO PUSH2 0x5F7 JUMPI RETURNDATASIZE PUSH1 0x0 DUP1 RETURNDATACOPY RETURNDATASIZE PUSH1 0x0 REVERT JUMPDEST POP POP POP POP PUSH1 0x40 MLOAD RETURNDATASIZE PUSH1 0x1F NOT PUSH1 0x1F DUP3 ADD AND DUP3 ADD DUP1 PUSH1 0x40 MSTORE POP DUP2 ADD SWAP1 PUSH2 0x61B SWAP2 SWAP1 PUSH2 0x11FE JUMP JUMPDEST SWAP1 POP DUP4 PUSH1 0x20 ADD MLOAD PUSH1 0x1 PUSH1 0x1 PUSH1 0x40 SHL SUB AND NUMBER GT DUP1 ISZERO PUSH2 0x638 JUMPI POP DUP1 ISZERO ISZERO JUMPDEST ISZERO PUSH2 0x6C4 JUMPI PUSH1 0x0 PUSH2 0x65F DUP6 PUSH1 0x20 ADD MLOAD PUSH1 0x1 PUSH1 0x1 PUSH1 0x40 SHL SUB AND NUMBER PUSH2 0xED9 SWAP1 SWAP2 SWAP1 PUSH4 0xFFFFFFFF AND JUMP JUMPDEST SWAP1 POP PUSH1 0x0 PUSH1 0x5 SLOAD PUSH2 0x692 DUP8 PUSH1 0x40 ADD MLOAD PUSH1 0x1 PUSH1 0x1 PUSH1 0x40 SHL SUB AND PUSH2 0x68C PUSH1 0x6 SLOAD DUP7 PUSH2 0xF52 SWAP1 SWAP2 SWAP1 PUSH4 0xFFFFFFFF AND JUMP JUMPDEST SWAP1 PUSH2 0xF52 JUMP JUMPDEST DUP2 PUSH2 0x699 JUMPI INVALID JUMPDEST DIV SWAP1 POP PUSH2 0x6BF DUP4 PUSH2 0x6AF DUP4 PUSH5 0xE8D4A51000 PUSH2 0xF52 JUMP JUMPDEST DUP2 PUSH2 0x6B6 JUMPI INVALID JUMPDEST DUP7 SWAP2 SWAP1 DIV PUSH2 0xF02 JUMP JUMPDEST SWAP4 POP POP POP JUMPDEST PUSH1 0x1 DUP4 ADD SLOAD DUP4 SLOAD PUSH2 0x6EF SWAP2 SWAP1 PUSH5 0xE8D4A51000 SWAP1 PUSH2 0x6E1 SWAP1 DUP7 PUSH2 0xF52 JUMP JUMPDEST DUP2 PUSH2 0x6E8 JUMPI INVALID JUMPDEST DIV SWAP1 PUSH2 0xED9 JUMP JUMPDEST SWAP8 SWAP7 POP POP POP POP POP POP POP JUMP JUMPDEST PUSH1 0x1 SLOAD PUSH1 0x1 PUSH1 0x1 PUSH1 0xA0 SHL SUB AND CALLER DUP2 EQ PUSH2 0x725 JUMPI PUSH1 0x40 MLOAD PUSH3 0x461BCD PUSH1 0xE5 SHL DUP2 MSTORE PUSH1 0x4 ADD PUSH2 0x285 SWAP1 PUSH2 0x1592 JUMP JUMPDEST PUSH1 0x0 DUP1 SLOAD PUSH1 0x40 MLOAD PUSH1 0x1 PUSH1 0x1 PUSH1 0xA0 SHL SUB DUP1 DUP6 AND SWAP4 SWAP3 AND SWAP2 PUSH32 0x8BE0079C531659141344CD1FD0A4F28419497F9722A3DAAFE3B4186F6B6457E0 SWAP2 LOG3 PUSH1 0x0 DUP1 SLOAD PUSH1 0x1 PUSH1 0x1 PUSH1 0xA0 SHL SUB SWAP1 SWAP3 AND PUSH1 0x1 PUSH1 0x1 PUSH1 0xA0 SHL SUB NOT SWAP3 DUP4 AND OR SWAP1 SSTORE PUSH1 0x1 DUP1 SLOAD SWAP1 SWAP2 AND SWAP1 SSTORE JUMP JUMPDEST PUSH2 0x78F PUSH2 0x10CF JUMP JUMPDEST POP PUSH1 0x0 DUP2 DUP2 MSTORE PUSH1 0x2 PUSH1 0x20 SWAP1 DUP2 MSTORE PUSH1 0x40 SWAP2 DUP3 SWAP1 KECCAK256 DUP3 MLOAD PUSH1 0x60 DUP2 ADD DUP5 MSTORE SWAP1 SLOAD PUSH1 0x1 PUSH1 0x1 PUSH1 0x80 SHL SUB DUP2 AND DUP3 MSTORE PUSH1 0x1 PUSH1 0x1 PUSH1 0x40 SHL SUB PUSH1 0x1 PUSH1 0x80 SHL DUP3 DIV DUP2 AND SWAP4 DUP4 ADD DUP5 SWAP1 MSTORE PUSH1 0x1 PUSH1 0xC0 SHL SWAP1 SWAP2 DIV AND SWAP3 DUP2 ADD SWAP3 SWAP1 SWAP3 MSTORE NUMBER GT ISZERO PUSH2 0xA80 JUMPI PUSH1 0x40 MLOAD PUSH4 0x78ED5D1F PUSH1 0xE0 SHL DUP2 MSTORE PUSH1 0x0 SWAP1 PUSH1 0x1 PUSH1 0x1 PUSH1 0xA0 SHL SUB PUSH32 0x0 AND SWAP1 PUSH4 0x78ED5D1F SWAP1 PUSH2 0x835 SWAP1 DUP7 SWAP1 PUSH1 0x4 ADD PUSH2 0x1698 JUMP JUMPDEST PUSH1 0x20 PUSH1 0x40 MLOAD DUP1 DUP4 SUB DUP2 DUP7 DUP1 EXTCODESIZE ISZERO DUP1 ISZERO PUSH2 0x84D JUMPI PUSH1 0x0 DUP1 REVERT JUMPDEST POP GAS STATICCALL ISZERO DUP1 ISZERO PUSH2 0x861 JUMPI RETURNDATASIZE PUSH1 0x0 DUP1 RETURNDATACOPY RETURNDATASIZE PUSH1 0x0 REVERT JUMPDEST POP POP POP POP PUSH1 0x40 MLOAD RETURNDATASIZE PUSH1 0x1F NOT PUSH1 0x1F DUP3 ADD AND DUP3 ADD DUP1 PUSH1 0x40 MSTORE POP DUP2 ADD SWAP1 PUSH2 0x885 SWAP2 SWAP1 PUSH2 0x11CA JUMP JUMPDEST PUSH1 0x1 PUSH1 0x1 PUSH1 0xA0 SHL SUB AND PUSH4 0x70A08231 PUSH32 0x0 PUSH1 0x40 MLOAD DUP3 PUSH4 0xFFFFFFFF AND PUSH1 0xE0 SHL DUP2 MSTORE PUSH1 0x4 ADD PUSH2 0x8D0 SWAP2 SWAP1 PUSH2 0x132F JUMP JUMPDEST PUSH1 0x20 PUSH1 0x40 MLOAD DUP1 DUP4 SUB DUP2 DUP7 DUP1 EXTCODESIZE ISZERO DUP1 ISZERO PUSH2 0x8E8 JUMPI PUSH1 0x0 DUP1 REVERT JUMPDEST POP GAS STATICCALL ISZERO DUP1 ISZERO PUSH2 0x8FC JUMPI RETURNDATASIZE PUSH1 0x0 DUP1 RETURNDATACOPY RETURNDATASIZE PUSH1 0x0 REVERT JUMPDEST POP POP POP POP PUSH1 0x40 MLOAD RETURNDATASIZE PUSH1 0x1F NOT PUSH1 0x1F DUP3 ADD AND DUP3 ADD DUP1 PUSH1 0x40 MSTORE POP DUP2 ADD SWAP1 PUSH2 0x920 SWAP2 SWAP1 PUSH2 0x11FE JUMP JUMPDEST SWAP1 POP DUP1 ISZERO PUSH2 0x9C3 JUMPI PUSH1 0x0 PUSH2 0x94A DUP4 PUSH1 0x20 ADD MLOAD PUSH1 0x1 PUSH1 0x1 PUSH1 0x40 SHL SUB AND NUMBER PUSH2 0xED9 SWAP1 SWAP2 SWAP1 PUSH4 0xFFFFFFFF AND JUMP JUMPDEST SWAP1 POP PUSH1 0x0 PUSH1 0x5 SLOAD PUSH2 0x977 DUP6 PUSH1 0x40 ADD MLOAD PUSH1 0x1 PUSH1 0x1 PUSH1 0x40 SHL SUB AND PUSH2 0x68C PUSH1 0x6 SLOAD DUP7 PUSH2 0xF52 SWAP1 SWAP2 SWAP1 PUSH4 0xFFFFFFFF AND JUMP JUMPDEST DUP2 PUSH2 0x97E JUMPI INVALID JUMPDEST DIV SWAP1 POP PUSH2 0x9B5 PUSH2 0x9A4 DUP5 PUSH2 0x997 DUP5 PUSH5 0xE8D4A51000 PUSH2 0xF52 JUMP JUMPDEST DUP2 PUSH2 0x99E JUMPI INVALID JUMPDEST DIV PUSH2 0xF89 JUMP JUMPDEST DUP6 MLOAD PUSH1 0x1 PUSH1 0x1 PUSH1 0x80 SHL SUB AND SWAP1 PUSH2 0xFB2 JUMP JUMPDEST PUSH1 0x1 PUSH1 0x1 PUSH1 0x80 SHL SUB AND DUP5 MSTORE POP POP JUMPDEST PUSH2 0x9CC NUMBER PUSH2 0xF25 JUMP JUMPDEST PUSH1 0x1 PUSH1 0x1 PUSH1 0x40 SHL SUB SWAP1 DUP2 AND PUSH1 0x20 DUP5 DUP2 ADD SWAP2 DUP3 MSTORE PUSH1 0x0 DUP7 DUP2 MSTORE PUSH1 0x2 SWAP1 SWAP2 MSTORE PUSH1 0x40 SWAP1 DUP2 SWAP1 KECCAK256 DUP6 MLOAD DUP2 SLOAD SWAP4 MLOAD DUP4 DUP9 ADD MLOAD PUSH1 0x1 PUSH1 0x1 PUSH1 0x80 SHL SUB NOT SWAP1 SWAP6 AND PUSH1 0x1 PUSH1 0x1 PUSH1 0x80 SHL SUB DUP4 AND OR PUSH8 0xFFFFFFFFFFFFFFFF PUSH1 0x80 SHL NOT AND PUSH1 0x1 PUSH1 0x80 SHL DUP3 DUP9 AND MUL OR PUSH1 0x1 PUSH1 0x1 PUSH1 0xC0 SHL SUB AND PUSH1 0x1 PUSH1 0xC0 SHL SWAP6 SWAP1 SWAP7 AND SWAP5 SWAP1 SWAP5 MUL SWAP5 SWAP1 SWAP5 OR SWAP1 SSTORE MLOAD DUP6 SWAP3 PUSH32 0xFC9545022A542541AD085D091FB09A2AB36FEE366A4576AB63714EA907AD353 SWAP3 PUSH2 0xA76 SWAP3 SWAP1 SWAP2 DUP7 SWAP2 PUSH2 0x16AF JUMP JUMPDEST PUSH1 0x40 MLOAD DUP1 SWAP2 SUB SWAP1 LOG2 POP JUMPDEST SWAP2 SWAP1 POP JUMP JUMPDEST DUP1 PUSH1 0x0 JUMPDEST DUP2 DUP2 LT ISZERO PUSH2 0xAB5 JUMPI PUSH2 0xAAC DUP5 DUP5 DUP4 DUP2 DUP2 LT PUSH2 0xAA0 JUMPI INVALID JUMPDEST SWAP1 POP PUSH1 0x20 MUL ADD CALLDATALOAD PUSH2 0x787 JUMP JUMPDEST POP PUSH1 0x1 ADD PUSH2 0xA89 JUMP JUMPDEST POP POP POP POP JUMP JUMPDEST PUSH1 0x3 DUP2 DUP2 SLOAD DUP2 LT PUSH2 0xAC8 JUMPI INVALID JUMPDEST PUSH1 0x0 SWAP2 DUP3 MSTORE PUSH1 0x20 SWAP1 SWAP2 KECCAK256 ADD SLOAD SWAP1 POP DUP2 JUMP JUMPDEST PUSH1 0x0 SLOAD PUSH1 0x1 PUSH1 0x1 PUSH1 0xA0 SHL SUB AND CALLER EQ PUSH2 0xB03 JUMPI PUSH1 0x40 MLOAD PUSH3 0x461BCD PUSH1 0xE5 SHL DUP2 MSTORE PUSH1 0x4 ADD PUSH2 0x285 SWAP1 PUSH2 0x155D JUMP JUMPDEST PUSH1 0x0 DUP2 DUP2 MSTORE PUSH1 0x2 PUSH1 0x20 MSTORE PUSH1 0x40 SWAP1 KECCAK256 SLOAD PUSH1 0x1 PUSH1 0x80 SHL SWAP1 DIV PUSH1 0x1 PUSH1 0x1 PUSH1 0x40 SHL SUB AND ISZERO PUSH2 0xB3F JUMPI PUSH1 0x40 MLOAD PUSH3 0x461BCD PUSH1 0xE5 SHL DUP2 MSTORE PUSH1 0x4 ADD PUSH2 0x285 SWAP1 PUSH2 0x141B JUMP JUMPDEST PUSH1 0x5 SLOAD NUMBER SWAP1 PUSH2 0xB4E SWAP1 DUP5 PUSH2 0xF02 JUMP JUMPDEST PUSH1 0x5 SSTORE PUSH1 0x40 DUP1 MLOAD PUSH1 0x60 DUP2 ADD SWAP1 SWAP2 MSTORE PUSH1 0x0 DUP2 MSTORE PUSH1 0x20 DUP2 ADD PUSH2 0xB6D DUP4 PUSH2 0xF25 JUMP JUMPDEST PUSH1 0x1 PUSH1 0x1 PUSH1 0x40 SHL SUB AND DUP2 MSTORE PUSH1 0x20 ADD PUSH2 0xB84 DUP6 PUSH2 0xF25 JUMP JUMPDEST PUSH1 0x1 PUSH1 0x1 PUSH1 0x40 SHL SUB SWAP1 DUP2 AND SWAP1 SWAP2 MSTORE PUSH1 0x0 DUP5 DUP2 MSTORE PUSH1 0x2 PUSH1 0x20 SWAP1 DUP2 MSTORE PUSH1 0x40 DUP1 DUP4 KECCAK256 DUP6 MLOAD DUP2 SLOAD SWAP4 DUP8 ADD MLOAD SWAP7 DUP4 ADD MLOAD DUP7 AND PUSH1 0x1 PUSH1 0xC0 SHL MUL PUSH1 0x1 PUSH1 0x1 PUSH1 0xC0 SHL SUB SWAP8 SWAP1 SWAP7 AND PUSH1 0x1 PUSH1 0x80 SHL MUL PUSH8 0xFFFFFFFFFFFFFFFF PUSH1 0x80 SHL NOT PUSH1 0x1 PUSH1 0x1 PUSH1 0x80 SHL SUB SWAP1 SWAP3 AND PUSH1 0x1 PUSH1 0x1 PUSH1 0x80 SHL SUB NOT SWAP1 SWAP6 AND SWAP5 SWAP1 SWAP5 OR AND SWAP3 SWAP1 SWAP3 OR SWAP5 SWAP1 SWAP5 AND SWAP3 SWAP1 SWAP3 OR SWAP1 SWAP2 SSTORE PUSH1 0x3 DUP1 SLOAD PUSH1 0x1 DUP2 ADD DUP3 SSTORE SWAP2 MSTORE PUSH32 0xC2575A0E9E593C00F959F8C92F12DB2869C3395A3B0502D05E2516446F71F85B ADD DUP4 SWAP1 SSTORE MLOAD DUP3 SWAP1 PUSH32 0x38410508059921573AB9EBDCA2A5034BE738D236366B8F32DE4434EA95ED3C81 SWAP1 PUSH2 0xC62 SWAP1 DUP7 SWAP1 PUSH2 0x1698 JUMP JUMPDEST PUSH1 0x40 MLOAD DUP1 SWAP2 SUB SWAP1 LOG2 POP POP POP JUMP JUMPDEST CALLER PUSH1 0x1 PUSH1 0x1 PUSH1 0xA0 SHL SUB PUSH32 0x0 AND EQ PUSH2 0xCB7 JUMPI PUSH1 0x40 MLOAD PUSH3 0x461BCD PUSH1 0xE5 SHL DUP2 MSTORE PUSH1 0x4 ADD PUSH2 0x285 SWAP1 PUSH2 0x147F JUMP JUMPDEST PUSH2 0xCBF PUSH2 0x10CF JUMP JUMPDEST PUSH2 0xCC8 DUP7 PUSH2 0x787 JUMP JUMPDEST PUSH1 0x0 DUP8 DUP2 MSTORE PUSH1 0x4 PUSH1 0x20 SWAP1 DUP2 MSTORE PUSH1 0x40 DUP1 DUP4 KECCAK256 PUSH1 0x1 PUSH1 0x1 PUSH1 0xA0 SHL SUB DUP11 AND DUP5 MSTORE SWAP1 SWAP2 MSTORE DUP2 KECCAK256 DUP1 SLOAD SWAP3 SWAP4 POP SWAP2 ISZERO PUSH2 0xD52 JUMPI PUSH1 0x1 DUP3 ADD SLOAD DUP4 MLOAD DUP4 SLOAD PUSH2 0xD1C SWAP3 SWAP2 PUSH5 0xE8D4A51000 SWAP2 PUSH2 0x6E1 SWAP2 PUSH1 0x1 PUSH1 0x1 PUSH1 0x80 SHL SUB AND PUSH2 0xF52 JUMP JUMPDEST SWAP1 POP PUSH2 0xD52 PUSH1 0x1 PUSH1 0x1 PUSH1 0xA0 SHL SUB PUSH32 0x0 AND DUP8 DUP4 PUSH2 0xFE1 JUMP JUMPDEST DUP4 DUP3 SSTORE DUP3 MLOAD PUSH5 0xE8D4A51000 SWAP1 PUSH2 0xD72 SWAP1 DUP7 SWAP1 PUSH1 0x1 PUSH1 0x1 PUSH1 0x80 SHL SUB AND PUSH2 0xF52 JUMP JUMPDEST DUP2 PUSH2 0xD79 JUMPI INVALID JUMPDEST DIV DUP3 PUSH1 0x1 ADD DUP2 SWAP1 SSTORE POP DUP6 PUSH1 0x1 PUSH1 0x1 PUSH1 0xA0 SHL SUB AND DUP9 DUP9 PUSH1 0x1 PUSH1 0x1 PUSH1 0xA0 SHL SUB AND PUSH32 0x2ECE88CA2BC08DD018DB50E1D25A20BF1241E5FAB1C396CAA51F01A54BD2F75B DUP5 PUSH1 0x40 MLOAD PUSH2 0xDC6 SWAP2 SWAP1 PUSH2 0x1698 JUMP JUMPDEST PUSH1 0x40 MLOAD DUP1 SWAP2 SUB SWAP1 LOG4 POP POP POP POP POP POP POP POP JUMP JUMPDEST PUSH1 0x0 SLOAD PUSH1 0x1 PUSH1 0x1 PUSH1 0xA0 SHL SUB AND DUP2 JUMP JUMPDEST PUSH1 0x4 PUSH1 0x20 SWAP1 DUP2 MSTORE PUSH1 0x0 SWAP3 DUP4 MSTORE PUSH1 0x40 DUP1 DUP5 KECCAK256 SWAP1 SWAP2 MSTORE SWAP1 DUP3 MSTORE SWAP1 KECCAK256 DUP1 SLOAD PUSH1 0x1 SWAP1 SWAP2 ADD SLOAD DUP3 JUMP JUMPDEST PUSH1 0x40 DUP1 MLOAD PUSH1 0x1 DUP1 DUP3 MSTORE DUP2 DUP4 ADD SWAP1 SWAP3 MSTORE PUSH1 0x60 SWAP2 DUP3 SWAP2 DUP3 SWAP2 PUSH1 0x20 DUP1 DUP4 ADD SWAP1 DUP1 CALLDATASIZE DUP4 CALLDATACOPY ADD SWAP1 POP POP SWAP1 POP PUSH32 0x0 DUP2 PUSH1 0x0 DUP2 MLOAD DUP2 LT PUSH2 0xE5F JUMPI INVALID JUMPDEST PUSH1 0x1 PUSH1 0x1 PUSH1 0xA0 SHL SUB SWAP3 SWAP1 SWAP3 AND PUSH1 0x20 SWAP3 DUP4 MUL SWAP2 SWAP1 SWAP2 ADD SWAP1 SWAP2 ADD MSTORE PUSH1 0x40 DUP1 MLOAD PUSH1 0x1 DUP1 DUP3 MSTORE DUP2 DUP4 ADD SWAP1 SWAP3 MSTORE PUSH1 0x60 SWAP2 DUP2 PUSH1 0x20 ADD PUSH1 0x20 DUP3 MUL DUP1 CALLDATASIZE DUP4 CALLDATACOPY ADD SWAP1 POP POP SWAP1 POP PUSH2 0xEA6 DUP8 DUP8 PUSH2 0x46C JUMP JUMPDEST DUP2 PUSH1 0x0 DUP2 MLOAD DUP2 LT PUSH2 0xEB3 JUMPI INVALID JUMPDEST PUSH1 0x20 SWAP1 DUP2 MUL SWAP2 SWAP1 SWAP2 ADD ADD MSTORE SWAP1 SWAP7 SWAP1 SWAP6 POP SWAP4 POP POP POP POP JUMP JUMPDEST PUSH1 0x1 SLOAD PUSH1 0x1 PUSH1 0x1 PUSH1 0xA0 SHL SUB AND DUP2 JUMP JUMPDEST DUP1 DUP3 SUB DUP3 DUP2 GT ISZERO PUSH2 0xEFC JUMPI PUSH1 0x40 MLOAD PUSH3 0x461BCD PUSH1 0xE5 SHL DUP2 MSTORE PUSH1 0x4 ADD PUSH2 0x285 SWAP1 PUSH2 0x13EC JUMP JUMPDEST SWAP3 SWAP2 POP POP JUMP JUMPDEST DUP2 DUP2 ADD DUP2 DUP2 LT ISZERO PUSH2 0xEFC JUMPI PUSH1 0x40 MLOAD PUSH3 0x461BCD PUSH1 0xE5 SHL DUP2 MSTORE PUSH1 0x4 ADD PUSH2 0x285 SWAP1 PUSH2 0x1526 JUMP JUMPDEST PUSH1 0x0 PUSH1 0x1 PUSH1 0x1 PUSH1 0x40 SHL SUB DUP3 GT ISZERO PUSH2 0xF4E JUMPI PUSH1 0x40 MLOAD PUSH3 0x461BCD PUSH1 0xE5 SHL DUP2 MSTORE PUSH1 0x4 ADD PUSH2 0x285 SWAP1 PUSH2 0x15C7 JUMP JUMPDEST POP SWAP1 JUMP JUMPDEST PUSH1 0x0 DUP2 ISZERO DUP1 PUSH2 0xF6D JUMPI POP POP DUP1 DUP3 MUL DUP3 DUP3 DUP3 DUP2 PUSH2 0xF6A JUMPI INVALID JUMPDEST DIV EQ JUMPDEST PUSH2 0xEFC JUMPI PUSH1 0x40 MLOAD PUSH3 0x461BCD PUSH1 0xE5 SHL DUP2 MSTORE PUSH1 0x4 ADD PUSH2 0x285 SWAP1 PUSH2 0x15FE JUMP JUMPDEST PUSH1 0x0 PUSH1 0x1 PUSH1 0x1 PUSH1 0x80 SHL SUB DUP3 GT ISZERO PUSH2 0xF4E JUMPI PUSH1 0x40 MLOAD PUSH3 0x461BCD PUSH1 0xE5 SHL DUP2 MSTORE PUSH1 0x4 ADD PUSH2 0x285 SWAP1 PUSH2 0x14EF JUMP JUMPDEST DUP2 DUP2 ADD PUSH1 0x1 PUSH1 0x1 PUSH1 0x80 SHL SUB DUP1 DUP4 AND SWAP1 DUP3 AND LT ISZERO PUSH2 0xEFC JUMPI PUSH1 0x40 MLOAD PUSH3 0x461BCD PUSH1 0xE5 SHL DUP2 MSTORE PUSH1 0x4 ADD PUSH2 0x285 SWAP1 PUSH2 0x1526 JUMP JUMPDEST PUSH1 0x0 PUSH1 0x60 DUP5 PUSH1 0x1 PUSH1 0x1 PUSH1 0xA0 SHL SUB AND PUSH4 0xA9059CBB DUP6 DUP6 PUSH1 0x40 MLOAD PUSH1 0x24 ADD PUSH2 0x1007 SWAP3 SWAP2 SWAP1 PUSH2 0x1343 JUMP JUMPDEST PUSH1 0x40 MLOAD PUSH1 0x20 DUP2 DUP4 SUB SUB DUP2 MSTORE SWAP1 PUSH1 0x40 MSTORE SWAP1 PUSH1 0xE0 SHL PUSH1 0x20 DUP3 ADD DUP1 MLOAD PUSH1 0x1 PUSH1 0x1 PUSH1 0xE0 SHL SUB DUP4 DUP2 DUP4 AND OR DUP4 MSTORE POP POP POP POP PUSH1 0x40 MLOAD PUSH2 0x1040 SWAP2 SWAP1 PUSH2 0x12F6 JUMP JUMPDEST PUSH1 0x0 PUSH1 0x40 MLOAD DUP1 DUP4 SUB DUP2 PUSH1 0x0 DUP7 GAS CALL SWAP2 POP POP RETURNDATASIZE DUP1 PUSH1 0x0 DUP2 EQ PUSH2 0x107D JUMPI PUSH1 0x40 MLOAD SWAP2 POP PUSH1 0x1F NOT PUSH1 0x3F RETURNDATASIZE ADD AND DUP3 ADD PUSH1 0x40 MSTORE RETURNDATASIZE DUP3 MSTORE RETURNDATASIZE PUSH1 0x0 PUSH1 0x20 DUP5 ADD RETURNDATACOPY PUSH2 0x1082 JUMP JUMPDEST PUSH1 0x60 SWAP2 POP JUMPDEST POP SWAP2 POP SWAP2 POP DUP2 DUP1 ISZERO PUSH2 0x10AC JUMPI POP DUP1 MLOAD ISZERO DUP1 PUSH2 0x10AC JUMPI POP DUP1 DUP1 PUSH1 0x20 ADD SWAP1 MLOAD DUP2 ADD SWAP1 PUSH2 0x10AC SWAP2 SWAP1 PUSH2 0x11A7 JUMP JUMPDEST PUSH2 0x10C8 JUMPI PUSH1 0x40 MLOAD PUSH3 0x461BCD PUSH1 0xE5 SHL DUP2 MSTORE PUSH1 0x4 ADD PUSH2 0x285 SWAP1 PUSH2 0x1448 JUMP JUMPDEST POP POP POP POP POP JUMP JUMPDEST PUSH1 0x40 DUP1 MLOAD PUSH1 0x60 DUP2 ADD DUP3 MSTORE PUSH1 0x0 DUP1 DUP3 MSTORE PUSH1 0x20 DUP3 ADD DUP2 SWAP1 MSTORE SWAP2 DUP2 ADD SWAP2 SWAP1 SWAP2 MSTORE SWAP1 JUMP JUMPDEST PUSH1 0x0 DUP1 PUSH1 0x0 PUSH1 0x60 DUP5 DUP7 SUB SLT ISZERO PUSH2 0x1103 JUMPI DUP3 DUP4 REVERT JUMPDEST DUP4 CALLDATALOAD PUSH2 0x110E DUP2 PUSH2 0x16D9 JUMP JUMPDEST SWAP3 POP PUSH1 0x20 DUP5 ADD CALLDATALOAD PUSH2 0x111E DUP2 PUSH2 0x16F1 JUMP JUMPDEST SWAP2 POP PUSH1 0x40 DUP5 ADD CALLDATALOAD PUSH2 0x112E DUP2 PUSH2 0x16F1 JUMP JUMPDEST DUP1 SWAP2 POP POP SWAP3 POP SWAP3 POP SWAP3 JUMP JUMPDEST PUSH1 0x0 DUP1 PUSH1 0x20 DUP4 DUP6 SUB SLT ISZERO PUSH2 0x114B JUMPI DUP2 DUP3 REVERT JUMPDEST DUP3 CALLDATALOAD PUSH1 0x1 PUSH1 0x1 PUSH1 0x40 SHL SUB DUP1 DUP3 GT ISZERO PUSH2 0x1161 JUMPI DUP4 DUP5 REVERT JUMPDEST DUP2 DUP6 ADD SWAP2 POP DUP6 PUSH1 0x1F DUP4 ADD SLT PUSH2 0x1174 JUMPI DUP4 DUP5 REVERT JUMPDEST DUP2 CALLDATALOAD DUP2 DUP2 GT ISZERO PUSH2 0x1182 JUMPI DUP5 DUP6 REVERT JUMPDEST DUP7 PUSH1 0x20 DUP1 DUP4 MUL DUP6 ADD ADD GT ISZERO PUSH2 0x1195 JUMPI DUP5 DUP6 REVERT JUMPDEST PUSH1 0x20 SWAP3 SWAP1 SWAP3 ADD SWAP7 SWAP2 SWAP6 POP SWAP1 SWAP4 POP POP POP POP JUMP JUMPDEST PUSH1 0x0 PUSH1 0x20 DUP3 DUP5 SUB SLT ISZERO PUSH2 0x11B8 JUMPI DUP1 DUP2 REVERT JUMPDEST DUP2 MLOAD PUSH2 0x11C3 DUP2 PUSH2 0x16F1 JUMP JUMPDEST SWAP4 SWAP3 POP POP POP JUMP JUMPDEST PUSH1 0x0 PUSH1 0x20 DUP3 DUP5 SUB SLT ISZERO PUSH2 0x11DB JUMPI DUP1 DUP2 REVERT JUMPDEST DUP2 MLOAD PUSH2 0x11C3 DUP2 PUSH2 0x16D9 JUMP JUMPDEST PUSH1 0x0 PUSH1 0x20 DUP3 DUP5 SUB SLT ISZERO PUSH2 0x11F7 JUMPI DUP1 DUP2 REVERT JUMPDEST POP CALLDATALOAD SWAP2 SWAP1 POP JUMP JUMPDEST PUSH1 0x0 PUSH1 0x20 DUP3 DUP5 SUB SLT ISZERO PUSH2 0x120F JUMPI DUP1 DUP2 REVERT JUMPDEST POP MLOAD SWAP2 SWAP1 POP JUMP JUMPDEST PUSH1 0x0 DUP1 PUSH1 0x40 DUP4 DUP6 SUB SLT ISZERO PUSH2 0x1228 JUMPI DUP2 DUP3 REVERT JUMPDEST DUP3 CALLDATALOAD SWAP2 POP PUSH1 0x20 DUP4 ADD CALLDATALOAD PUSH2 0x123A DUP2 PUSH2 0x16D9 JUMP JUMPDEST DUP1 SWAP2 POP POP SWAP3 POP SWAP3 SWAP1 POP JUMP JUMPDEST PUSH1 0x0 DUP1 PUSH1 0x0 DUP1 PUSH1 0x0 PUSH1 0xA0 DUP7 DUP9 SUB SLT ISZERO PUSH2 0x125C JUMPI DUP1 DUP2 REVERT JUMPDEST DUP6 CALLDATALOAD SWAP5 POP PUSH1 0x20 DUP7 ADD CALLDATALOAD PUSH2 0x126E DUP2 PUSH2 0x16D9 JUMP JUMPDEST SWAP4 POP PUSH1 0x40 DUP7 ADD CALLDATALOAD PUSH2 0x127E DUP2 PUSH2 0x16D9 JUMP JUMPDEST SWAP5 SWAP8 SWAP4 SWAP7 POP SWAP4 SWAP5 PUSH1 0x60 DUP2 ADD CALLDATALOAD SWAP5 POP PUSH1 0x80 ADD CALLDATALOAD SWAP3 SWAP2 POP POP JUMP JUMPDEST PUSH1 0x0 DUP1 PUSH1 0x0 PUSH1 0x60 DUP5 DUP7 SUB SLT ISZERO PUSH2 0x12AA JUMPI DUP3 DUP4 REVERT JUMPDEST DUP4 CALLDATALOAD SWAP3 POP PUSH1 0x20 DUP5 ADD CALLDATALOAD PUSH2 0x12BC DUP2 PUSH2 0x16D9 JUMP JUMPDEST SWAP3 SWAP6 SWAP3 SWAP5 POP POP POP PUSH1 0x40 SWAP2 SWAP1 SWAP2 ADD CALLDATALOAD SWAP1 JUMP JUMPDEST PUSH1 0x0 DUP1 PUSH1 0x40 DUP4 DUP6 SUB SLT ISZERO PUSH2 0x12DF JUMPI DUP2 DUP3 REVERT JUMPDEST POP POP DUP1 CALLDATALOAD SWAP3 PUSH1 0x20 SWAP1 SWAP2 ADD CALLDATALOAD SWAP2 POP JUMP JUMPDEST DUP2 MSTORE PUSH1 0x20 ADD SWAP1 JUMP JUMPDEST PUSH1 0x0 DUP3 MLOAD DUP2 JUMPDEST DUP2 DUP2 LT ISZERO PUSH2 0x1316 JUMPI PUSH1 0x20 DUP2 DUP7 ADD DUP2 ADD MLOAD DUP6 DUP4 ADD MSTORE ADD PUSH2 0x12FC JUMP JUMPDEST DUP2 DUP2 GT ISZERO PUSH2 0x1324 JUMPI DUP3 DUP3 DUP6 ADD MSTORE JUMPDEST POP SWAP2 SWAP1 SWAP2 ADD SWAP3 SWAP2 POP POP JUMP JUMPDEST PUSH1 0x1 PUSH1 0x1 PUSH1 0xA0 SHL SUB SWAP2 SWAP1 SWAP2 AND DUP2 MSTORE PUSH1 0x20 ADD SWAP1 JUMP JUMPDEST PUSH1 0x1 PUSH1 0x1 PUSH1 0xA0 SHL SUB SWAP3 SWAP1 SWAP3 AND DUP3 MSTORE PUSH1 0x20 DUP3 ADD MSTORE PUSH1 0x40 ADD SWAP1 JUMP JUMPDEST PUSH1 0x40 DUP1 DUP3 MSTORE DUP4 MLOAD SWAP1 DUP3 ADD DUP2 SWAP1 MSTORE PUSH1 0x0 SWAP1 PUSH1 0x20 SWAP1 PUSH1 0x60 DUP5 ADD SWAP1 DUP3 DUP8 ADD DUP5 JUMPDEST DUP3 DUP2 LT ISZERO PUSH2 0x139E JUMPI DUP2 MLOAD PUSH1 0x1 PUSH1 0x1 PUSH1 0xA0 SHL SUB AND DUP5 MSTORE SWAP3 DUP5 ADD SWAP3 SWAP1 DUP5 ADD SWAP1 PUSH1 0x1 ADD PUSH2 0x1379 JUMP JUMPDEST POP POP POP DUP4 DUP2 SUB DUP3 DUP6 ADD MSTORE DUP1 DUP6 MLOAD PUSH2 0x13B5 DUP2 DUP5 PUSH2 0x1698 JUMP JUMPDEST SWAP2 POP DUP4 DUP8 ADD SWAP3 POP DUP5 JUMPDEST DUP2 DUP2 LT ISZERO PUSH2 0x13DF JUMPI PUSH2 0x13D1 DUP4 DUP6 MLOAD PUSH2 0x12EE JUMP JUMPDEST SWAP4 DUP6 ADD SWAP4 SWAP3 POP PUSH1 0x1 ADD PUSH2 0x13BE JUMP JUMPDEST POP SWAP1 SWAP8 SWAP7 POP POP POP POP POP POP POP JUMP JUMPDEST PUSH1 0x20 DUP1 DUP3 MSTORE PUSH1 0x15 SWAP1 DUP3 ADD MSTORE PUSH21 0x426F72696E674D6174683A20556E646572666C6F77 PUSH1 0x58 SHL PUSH1 0x40 DUP3 ADD MSTORE PUSH1 0x60 ADD SWAP1 JUMP JUMPDEST PUSH1 0x20 DUP1 DUP3 MSTORE PUSH1 0x13 SWAP1 DUP3 ADD MSTORE PUSH19 0x506F6F6C20616C726561647920657869737473 PUSH1 0x68 SHL PUSH1 0x40 DUP3 ADD MSTORE PUSH1 0x60 ADD SWAP1 JUMP JUMPDEST PUSH1 0x20 DUP1 DUP3 MSTORE PUSH1 0x1C SWAP1 DUP3 ADD MSTORE PUSH32 0x426F72696E6745524332303A205472616E73666572206661696C656400000000 PUSH1 0x40 DUP3 ADD MSTORE PUSH1 0x60 ADD SWAP1 JUMP JUMPDEST PUSH1 0x20 DUP1 DUP3 MSTORE PUSH1 0x21 SWAP1 DUP3 ADD MSTORE PUSH32 0x4F6E6C79204D4356322063616E2063616C6C20746869732066756E6374696F6E PUSH1 0x40 DUP3 ADD MSTORE PUSH1 0x17 PUSH1 0xF9 SHL PUSH1 0x60 DUP3 ADD MSTORE PUSH1 0x80 ADD SWAP1 JUMP JUMPDEST PUSH1 0x20 DUP1 DUP3 MSTORE PUSH1 0x15 SWAP1 DUP3 ADD MSTORE PUSH21 0x4F776E61626C653A207A65726F2061646472657373 PUSH1 0x58 SHL PUSH1 0x40 DUP3 ADD MSTORE PUSH1 0x60 ADD SWAP1 JUMP JUMPDEST PUSH1 0x20 DUP1 DUP3 MSTORE PUSH1 0x1C SWAP1 DUP3 ADD MSTORE PUSH32 0x426F72696E674D6174683A2075696E74313238204F766572666C6F7700000000 PUSH1 0x40 DUP3 ADD MSTORE PUSH1 0x60 ADD SWAP1 JUMP JUMPDEST PUSH1 0x20 DUP1 DUP3 MSTORE PUSH1 0x18 SWAP1 DUP3 ADD MSTORE PUSH32 0x426F72696E674D6174683A20416464204F766572666C6F770000000000000000 PUSH1 0x40 DUP3 ADD MSTORE PUSH1 0x60 ADD SWAP1 JUMP JUMPDEST PUSH1 0x20 DUP1 DUP3 MSTORE DUP2 DUP2 ADD MSTORE PUSH32 0x4F776E61626C653A2063616C6C6572206973206E6F7420746865206F776E6572 PUSH1 0x40 DUP3 ADD MSTORE PUSH1 0x60 ADD SWAP1 JUMP JUMPDEST PUSH1 0x20 DUP1 DUP3 MSTORE DUP2 DUP2 ADD MSTORE PUSH32 0x4F776E61626C653A2063616C6C657220213D2070656E64696E67206F776E6572 PUSH1 0x40 DUP3 ADD MSTORE PUSH1 0x60 ADD SWAP1 JUMP JUMPDEST PUSH1 0x20 DUP1 DUP3 MSTORE PUSH1 0x1B SWAP1 DUP3 ADD MSTORE PUSH32 0x426F72696E674D6174683A2075696E743634204F766572666C6F770000000000 PUSH1 0x40 DUP3 ADD MSTORE PUSH1 0x60 ADD SWAP1 JUMP JUMPDEST PUSH1 0x20 DUP1 DUP3 MSTORE PUSH1 0x18 SWAP1 DUP3 ADD MSTORE PUSH32 0x426F72696E674D6174683A204D756C204F766572666C6F770000000000000000 PUSH1 0x40 DUP3 ADD MSTORE PUSH1 0x60 ADD SWAP1 JUMP JUMPDEST DUP2 MLOAD PUSH1 0x1 PUSH1 0x1 PUSH1 0x80 SHL SUB AND DUP2 MSTORE PUSH1 0x20 DUP1 DUP4 ADD MLOAD PUSH1 0x1 PUSH1 0x1 PUSH1 0x40 SHL SUB SWAP1 DUP2 AND SWAP2 DUP4 ADD SWAP2 SWAP1 SWAP2 MSTORE PUSH1 0x40 SWAP3 DUP4 ADD MLOAD AND SWAP2 DUP2 ADD SWAP2 SWAP1 SWAP2 MSTORE PUSH1 0x60 ADD SWAP1 JUMP JUMPDEST PUSH1 0x1 PUSH1 0x1 PUSH1 0x80 SHL SUB SWAP4 SWAP1 SWAP4 AND DUP4 MSTORE PUSH1 0x1 PUSH1 0x1 PUSH1 0x40 SHL SUB SWAP2 DUP3 AND PUSH1 0x20 DUP5 ADD MSTORE AND PUSH1 0x40 DUP3 ADD MSTORE PUSH1 0x60 ADD SWAP1 JUMP JUMPDEST SWAP1 DUP2 MSTORE PUSH1 0x20 ADD SWAP1 JUMP JUMPDEST SWAP2 DUP3 MSTORE PUSH1 0x20 DUP3 ADD MSTORE PUSH1 0x40 ADD SWAP1 JUMP JUMPDEST PUSH1 0x1 PUSH1 0x1 PUSH1 0x40 SHL SUB SWAP4 SWAP1 SWAP4 AND DUP4 MSTORE PUSH1 0x20 DUP4 ADD SWAP2 SWAP1 SWAP2 MSTORE PUSH1 0x1 PUSH1 0x1 PUSH1 0x80 SHL SUB AND PUSH1 0x40 DUP3 ADD MSTORE PUSH1 0x60 ADD SWAP1 JUMP JUMPDEST PUSH1 0x1 PUSH1 0x1 PUSH1 0xA0 SHL SUB DUP2 AND DUP2 EQ PUSH2 0x16EE JUMPI PUSH1 0x0 DUP1 REVERT JUMPDEST POP JUMP JUMPDEST DUP1 ISZERO ISZERO DUP2 EQ PUSH2 0x16EE JUMPI PUSH1 0x0 DUP1 REVERT INVALID LOG2 PUSH5 0x6970667358 0x22 SLT KECCAK256 JUMPDEST MUL 0xE6 PUSH31 0x50616308DE8A2A0EA092220CBB6BAB154C4C12313CE97766220AC5F864736F PUSH13 0x634300060C0033000000000000 "
                },
                "gasEstimates": {
                    "creation": {
                        "codeDepositCost": "1188200",
                        "executionCost": "infinite",
                        "totalCost": "infinite"
                    },
                    "external": {
                        "add(uint256,uint256)": "infinite",
                        "claimOwnership()": "45089",
                        "massUpdatePools(uint256[])": "infinite",
                        "onSushiReward(uint256,address,address,uint256,uint256)": "infinite",
                        "owner()": "1092",
                        "pendingOwner()": "1158",
                        "pendingToken(uint256,address)": "infinite",
                        "pendingTokens(uint256,address,uint256)": "infinite",
                        "poolIds(uint256)": "2041",
                        "poolInfo(uint256)": "1411",
                        "poolLength()": "1074",
                        "set(uint256,uint256)": "infinite",
                        "tokenPerBlock()": "1051",
                        "transferOwnership(address,bool,bool)": "infinite",
                        "updatePool(uint256)": "infinite",
                        "userInfo(uint256,address)": "2226"
                    }
                },
                "methodIdentifiers": {
                    "add(uint256,uint256)": "771602f7",
                    "claimOwnership()": "4e71e0c8",
                    "massUpdatePools(uint256[])": "57a5b58c",
                    "onSushiReward(uint256,address,address,uint256,uint256)": "8bf63742",
                    "owner()": "8da5cb5b",
                    "pendingOwner()": "e30c3978",
                    "pendingToken(uint256,address)": "48e43af4",
                    "pendingTokens(uint256,address,uint256)": "d63b3c49",
                    "poolIds(uint256)": "69883b4e",
                    "poolInfo(uint256)": "1526fe27",
                    "poolLength()": "081e3eda",
                    "set(uint256,uint256)": "1ab06ee5",
                    "tokenPerBlock()": "4198709a",
                    "transferOwnership(address,bool,bool)": "078dfbe7",
                    "updatePool(uint256)": "51eb05a6",
                    "userInfo(uint256,address)": "93f1a40b"
                }
            },
            "storageLayout": {
                "storage": [
                    {
                        "astId": 149,
                        "contract": "contracts/mocks/ComplexRewarder.sol:ComplexRewarder",
                        "label": "owner",
                        "offset": 0,
                        "slot": "0",
                        "type": "t_address"
                    },
                    {
                        "astId": 151,
                        "contract": "contracts/mocks/ComplexRewarder.sol:ComplexRewarder",
                        "label": "pendingOwner",
                        "offset": 0,
                        "slot": "1",
                        "type": "t_address"
                    },
                    {
                        "astId": 2406,
                        "contract": "contracts/mocks/ComplexRewarder.sol:ComplexRewarder",
                        "label": "poolInfo",
                        "offset": 0,
                        "slot": "2",
                        "type": "t_mapping(t_uint256,t_struct(PoolInfo)2401_storage)"
                    },
                    {
                        "astId": 2409,
                        "contract": "contracts/mocks/ComplexRewarder.sol:ComplexRewarder",
                        "label": "poolIds",
                        "offset": 0,
                        "slot": "3",
                        "type": "t_array(t_uint256)dyn_storage"
                    },
                    {
                        "astId": 2416,
                        "contract": "contracts/mocks/ComplexRewarder.sol:ComplexRewarder",
                        "label": "userInfo",
                        "offset": 0,
                        "slot": "4",
                        "type": "t_mapping(t_uint256,t_mapping(t_address,t_struct(UserInfo)2394_storage))"
                    },
                    {
                        "astId": 2419,
                        "contract": "contracts/mocks/ComplexRewarder.sol:ComplexRewarder",
                        "label": "totalAllocPoint",
                        "offset": 0,
                        "slot": "5",
                        "type": "t_uint256"
                    },
                    {
                        "astId": 2421,
                        "contract": "contracts/mocks/ComplexRewarder.sol:ComplexRewarder",
                        "label": "tokenPerBlock",
                        "offset": 0,
                        "slot": "6",
                        "type": "t_uint256"
                    }
                ],
                "types": {
                    "t_address": {
                        "encoding": "inplace",
                        "label": "address",
                        "numberOfBytes": "20"
                    },
                    "t_array(t_uint256)dyn_storage": {
                        "base": "t_uint256",
                        "encoding": "dynamic_array",
                        "label": "uint256[]",
                        "numberOfBytes": "32"
                    },
                    "t_mapping(t_address,t_struct(UserInfo)2394_storage)": {
                        "encoding": "mapping",
                        "key": "t_address",
                        "label": "mapping(address => struct ComplexRewarder.UserInfo)",
                        "numberOfBytes": "32",
                        "value": "t_struct(UserInfo)2394_storage"
                    },
                    "t_mapping(t_uint256,t_mapping(t_address,t_struct(UserInfo)2394_storage))": {
                        "encoding": "mapping",
                        "key": "t_uint256",
                        "label": "mapping(uint256 => mapping(address => struct ComplexRewarder.UserInfo))",
                        "numberOfBytes": "32",
                        "value": "t_mapping(t_address,t_struct(UserInfo)2394_storage)"
                    },
                    "t_mapping(t_uint256,t_struct(PoolInfo)2401_storage)": {
                        "encoding": "mapping",
                        "key": "t_uint256",
                        "label": "mapping(uint256 => struct ComplexRewarder.PoolInfo)",
                        "numberOfBytes": "32",
                        "value": "t_struct(PoolInfo)2401_storage"
                    },
                    "t_struct(PoolInfo)2401_storage": {
                        "encoding": "inplace",
                        "label": "struct ComplexRewarder.PoolInfo",
                        "members": [
                            {
                                "astId": 2396,
                                "contract": "contracts/mocks/ComplexRewarder.sol:ComplexRewarder",
                                "label": "accSushiPerShare",
                                "offset": 0,
                                "slot": "0",
                                "type": "t_uint128"
                            },
                            {
                                "astId": 2398,
                                "contract": "contracts/mocks/ComplexRewarder.sol:ComplexRewarder",
                                "label": "lastRewardBlock",
                                "offset": 16,
                                "slot": "0",
                                "type": "t_uint64"
                            },
                            {
                                "astId": 2400,
                                "contract": "contracts/mocks/ComplexRewarder.sol:ComplexRewarder",
                                "label": "allocPoint",
                                "offset": 24,
                                "slot": "0",
                                "type": "t_uint64"
                            }
                        ],
                        "numberOfBytes": "32"
                    },
                    "t_struct(UserInfo)2394_storage": {
                        "encoding": "inplace",
                        "label": "struct ComplexRewarder.UserInfo",
                        "members": [
                            {
                                "astId": 2391,
                                "contract": "contracts/mocks/ComplexRewarder.sol:ComplexRewarder",
                                "label": "amount",
                                "offset": 0,
                                "slot": "0",
                                "type": "t_uint256"
                            },
                            {
                                "astId": 2393,
                                "contract": "contracts/mocks/ComplexRewarder.sol:ComplexRewarder",
                                "label": "rewardDebt",
                                "offset": 0,
                                "slot": "1",
                                "type": "t_uint256"
                            }
                        ],
                        "numberOfBytes": "64"
                    },
                    "t_uint128": {
                        "encoding": "inplace",
                        "label": "uint128",
                        "numberOfBytes": "16"
                    },
                    "t_uint256": {
                        "encoding": "inplace",
                        "label": "uint256",
                        "numberOfBytes": "32"
                    },
                    "t_uint64": {
                        "encoding": "inplace",
                        "label": "uint64",
                        "numberOfBytes": "8"
                    }
                }
            },
            "userdoc": {
                "kind": "user",
                "methods": {
                    "add(uint256,uint256)": {
                        "notice": "Add a new LP to the pool. Can only be called by the owner. DO NOT add the same LP token more than once. Rewards will be messed up if you do."
                    },
                    "massUpdatePools(uint256[])": {
                        "notice": "Update reward variables for all pools. Be careful of gas spending!"
                    },
                    "pendingToken(uint256,address)": {
                        "notice": "View function to see pending Token"
                    },
                    "poolInfo(uint256)": {
                        "notice": "Info of each pool."
                    },
                    "poolLength()": {
                        "notice": "Returns the number of MCV2 pools."
                    },
                    "set(uint256,uint256)": {
                        "notice": "Update the given pool's SUSHI allocation point and `IRewarder` contract. Can only be called by the owner."
                    },
                    "updatePool(uint256)": {
                        "notice": "Update reward variables of the given pool."
                    },
                    "userInfo(uint256,address)": {
                        "notice": "Info of each user that stakes LP tokens."
                    }
                },
                "version": 1
            }
        }
    }
}